S0120000657175616C6C697A65722E73726563D4
S11300000C9446120C9464120C9464120C946412B2
S11300100C9464120C9464120C9464120C94641284
S11300200C9464120C9464120C9464120C94641274
S11300300C9464120C9464120C9464120C94641264
S11300400C9464120C9464120C9464120C94641254
S11300500C9464120C9464120C9464120C94641244
S11300600C9464120C9464120C9464120C94641234
S11300700C9464120C9464120C9464120C94641224
S11300800C9464120C9464120C94641200005500D5
S1130090FF0000005500FF0000005500FF000000B5
S11300A05500FF0000005500FF0000005500FF0050
S11300B000005500FF000000FF0000000000550094
S11300C0FF0000005500FF0000005500FF00000085
S11300D05500FF0000005500FF0000005500FF0020
S11300E000005500FF0000005500FF00000055000F
S11300F0FF0000000000000000005500FF000000A9
S11301005500FF0000005500FF0000005500FF00EF
S11301100000FF0000000000FF000000FF00FF00DF
S1130120000000005500FF0000005500FF00000023
S11301305500FF0000005500FF0000005500FF00BF
S113014000005500FF0000005500FF0000005500AE
S1130150FF0000005500FF0000005500FF000000F4
S11301605500FF0000005500FF000000FF000000E4
S11301700000FF000000FF00FF000000FF00FF0080
S113018000000000FF00000000005500FF00000018
S11301905500FF0000005500FF0000005500FF005F
S11301A000005500FF0000005500FF00000055004E
S11301B0FF0000005500FF0000005500FF00000094
S11301C05500FF000000FF0000000000FF000000D9
S11301D0FF00FF000000FF00FF0000000000FF0020
S11301E000000000FF0000000000FF00000000000D
S11301F05500FF0000005500FF0000005500FF00FF
S113020000000000000000005500FF000000550041
S1130210FF0000005500FF00000000000000000087
S11302205500FF0000005500FF00FF00FF00000024
S1130230FF00FF0000000000FF0000000000FF00BE
S1130240000000005500FF0000005500FF00000002
S11302505500FF0000005500FF0000005500FF009E
S113026000005500FF0000005500FF00000055008D
S1130270FF0000005500FF0000005500FF000000D3
S11302805500FF000000FF0000000000FF00000018
S11302900000FF0000000000FF0000000000FF005D
S11302A000000000FF0000000000FF00000000004C
S11302B05500FF0000005500FF0000005500FF003E
S11302C000005500FF0000005500FF00000055002D
S11302D0FF0000005500FF0000005500FF00000073
S11302E0FF0000000000FF005500000000000000B7
S11302F00000FF0000000000FF0000000000FF00FD
S113030000000000FF000000FF0000000000FF00EC
S11303100000000000005500FF0000005500FF0031
S113032000005500FF0000005500FF0000005500CC
S1130330FF0000005500FF000000FF000000000067
S1130340FF0000000000FF0000000000FF000000AC
S11303500000FF0000000000FF0000000000FF009C
S11303600000FF0000000000FF000000000000008B
S1130370FF0000000000FF00000000005500FF0027
S113038000005500FF0000000000000000005500C0
S1130390FF0000005500FF0000005500FF000000B2
S11303A05500FF000000FF0000000000FF000000F7
S11303B00000FF000000FF0000000000FF0000003C
S11303C00000FF00000000000000FF00000000002B
S11303D05500FF0000005500FF0000005500FF001D
S11303E000005500FF0000005500FF00000055000C
S11303F0FF0000005500FF0000005500FF00000052
S1130400FF0000000000FF0000000000FF000000EB
S1130410FF0000000000FF00000000000000FF00DB
S113042000000000FF0000000000FF0000000000CA
S1130430FF00000000005500FF0000005500FF0011
S113044000005500FF0000005500FF0000005500AB
S1130450FF0000005500FF000000FF000000000046
S1130460FF0000000000FF000000FF00000000008B
S11304700000FF0000000000FF0000000000FF007B
S113048000000000FF0000000000FF00000000006A
S1130490FF0000000000FF00000000005500FF0006
S11304A000005500FF0000005500FF00000055004B
S11304B0FF000000FF0000000000FF000000FF003C
S11304C000000000FF0000000000FF00000000002A
S11304D00000FF0000000000FF0000000000FF001B
S11304E000000000FF0000000000FF00000000000A
S11304F0000000000000FF0000000000FF000000FA
S113050000005500FF0000005500FF000000FF0040
S113051000000000FF000000FF0000000000FF00DA
S1130520000000000000FF0000000000FF000000C9
S11305300000FF0000000000FF0000000000FF00BA
S113054000000000FF0000000000FF0000000000A9
S1130550FF0000000000FF0000000000FF0000009A
S11305600000FF00000000005500FF0000005500DF
S1130570FF0000005500FF0000005500FF000000D0
S11305805500FF0000005500FF0000005500FF006B
S1130590FF0055000000FF0055000000FF0055005B
S11305A00000FF005500000000005500FF0000009F
S11305B05500FF0000005500FF0000005500FF003B
S11305C000005500FF0000005500FF00000055002A
S11305D0FF0000005500FF0000005500FF00000070
S11305E05500FF0000005500FF0000005500FF000B
S11305F0FF0055000000FF0055000000FF005500FB
S11306000000FF005500000000005500FF0000003E
S11306105500FF0000005500FF0000005500FF00DA
S113062000005500FF0000005500FF0000005500C9
S1130630FF0000005500FF0000005500FF0000000F
S11306405500FF0000005500FF0000005500FF00AA
S1130650FF0055000000FF0055000000FF0055009A
S11306600000FF005500000000005500FF000000DE
S11306705500FF0000005500FF0000005500FF007A
S113068000005500FF0000005500FF000000FF00BF
S113069055000000FF0055000000FF005500000059
S11306A0FF0055000000FF0055000000FF0055004A
S11306B00000FF0055000000FF0055000000FF008F
S11306C055000000FF0055000000FF005500000029
S11306D0FF0055000000FF0055000000FF0055001A
S11306E00000FF0055000000FF0055000000FF005F
S11306F055000000FF0055000000FF0055000000F9
S1130700FF0055000000FF0055000000FF005500E9
S11307100000FF0055000000FF0055000000FF002E
S113072055000000FF0055000000FF0055000000C8
S1130730FF0055000000FF0055000000FF005500B9
S11307400000FF0055000000FF0055000000FF00FE
S113075055000000FF0055000000FF005500000098
S1130760FF0055000000FF0055000000FF00550089
S11307700000FF005500FF00FF000000FF00FF0025
S11307800000FF00FF000000FF00FF000000FF006A
S1130790FF0000000000FF0055000000FF005500AE
S11307A00000FF0055000000FF0055000000FF009E
S11307B055000000FF0055000000FF005500000038
S11307C0FF0055000000FF0055000000FF00550029
S11307D00000FF005500FF00FF000000FF00FF00C5
S11307E00000FF00FF000000FF00FF000000FF000A
S11307F0FF0000000000FF0055000000FF0055004E
S11308000000FF0055000000FF0055000000FF003D
S113081055000000FF0055000000FF0055000000D7
S1130820FF005500FF00FF00FF000000FF0055001F
S11308300000FF005500FF00FF000000FF00FF0064
S11308400000FF00FF000000FF00FF000000FF00A9
S1130850FF0000000000FF0055000000FF005500ED
S11308600000FF0055000000FF0055000000FF00DD
S113087055000000FF0055000000FF005500000077
S1130880FF0055000000FF0055000000FF00550068
S11308900000FF005500FF0000000000FF00000002
S11308A00000FF0000000000FF0000000000FF0047
S11308B0000000000000FF0055000000FF0055008C
S11308C00000FF0055000000FF0055000000FF007D
S11308D055000000FF005500FF00FF00FF0000006E
S11308E0FF0055000000FF0055000000FF00550008
S11308F00000FF005500FF0000000000FF000000A2
S11309000000FF0000000000FF0000000000FF00E6
S1130910000000000000FF0055000000FF0055002B
S11309200000FF0055000000FF0055000000FF001C
S113093055000000FF0055000000FF0055000000B6
S1130940FF0055000000FF0055000000FF005500A7
S11309500000FF005500FF0000000000FF00000041
S11309600000FF0000000000FF0000000000FF0086
S1130970000000000000FF0055000000FF005500CB
S1130980FF00FF00FF000000FF0055000000FF0013
S113099055000000FF0055000000FF005500000056
S11309A0FF0055000000FF0055000000FF00550047
S11309B00000FF005500FF0000000000FF000000E1
S11309C00000FF0000000000FF0000000000FF0026
S11309D0000000000000FF0055000000FF0055006B
S11309E00000FF0055000000FF0055000000FF005C
S11309F055000000FF0055000000FF0055000000F6
S1130A00FF0055000000FF0055000000FF005500E6
S1130A100000FF005500FF0000000000FF00000080
S1130A200000FF0000000000FF0000000000FF00C5
S1130A30000000000000FF0055000000FF0055000A
S1130A400000FF0055000000FF0055000000FF00FB
S1130A5055000000FF0055000000FF005500000095
S1130A60FF005500FF0000000000FF000000000030
S1130A70FF0000000000FF0000000000FF00000075
S1130A800000FF0000000000FF0000000000FF0065
S1130A90000000000000FF0055000000FF005500AA
S1130AA00000FF0055000000FF0055000000FF009B
S1130AB055000000FF0055000000FF005500FF0036
S1130AC000000000FF0000000000FF000000000024
S1130AD0FF0000000000FF0000000000FF00000015
S1130AE00000FF0000000000FF0000000000FF0005
S1130AF0000000000000FF0055000000FF0055004A
S1130B000000FF0055000000FF0055000000FF003A
S1130B1055000000FF0055000000FF005500FF00D5
S1130B2000000000FF0000000000FF0000000000C3
S1130B30FF0000000000FF0000000000FF000000B4
S1130B400000FF0000000000FF0000000000FF00A4
S1130B50000000000000FF0055000000FF005500E9
S1130B60FF00FF00FF000000FF0055000000FF0031
S1130B7055000000FF0055000000FF005500FF0075
S1130B8000000000FF0000000000FF000000000063
S1130B90FF0000000000FF0000000000FF00000054
S1130BA00000FF0000000000FF0000000000FF0044
S1130BB0000000000000FF0055000000FF00550089
S1130BC00000FF0055000000FF0055000000FF007A
S1130BD05500FF00FF00FF000000FF00550000006B
S1130BE0FF0055000000FF005500FF00000000005A
S1130BF0FF0000000000FF0000000000FF000000F4
S1130C000000FF0000000000FF00000000000000E2
S1130C10FF0055000000FF0055000000FF005500D4
S1130C200000FF0055000000FF0055000000FF0019
S1130C3055000000FF0055000000FF0055000000B3
S1130C40FF0055000000FF0055000000FF005500A4
S1130C500000FF0055000000FF0055000000FF00E9
S1130C6055000000FF0055000000FF005500000083
S1130C70FF0055000000FF0055000000FF00550074
S1130C800000FF0055000000FF00550000000000B8
S1130C900000000000000000000000000000000050
S1130CA00000000000000000000000000000000040
S1130CB00000000000000000000000000000000030
S1130CC00000000000000000000000000000000020
S1130CD00000000000000000000000000000000010
S1130CE00000000000000000000000000000000000
S1130CF000000000000000000000000000000000F0
S1130D0000000000000000000000000000000000DF
S1130D1000000000000000000000000000000000CF
S1130D2000000000000000000000000000000000BF
S1130D3000000000000000000000000000000000AF
S1130D40000000000000000000000000000000009F
S1130D50000000000000000000000000000000008F
S1130D60000000000000000000000000000000007F
S1130D70000000000000000000000000000000006F
S1130D80000000000000000000000000000000005F
S1130D90000000000000000000000000000000004F
S1130DA0000000000000000000000000000000003F
S1130DB0000000000000000000000000000000002F
S1130DC0FF0055000000FF0055000000FF00550023
S1130DD00000FF005500FF0000000000FF000000BD
S1130DE000000000FF0055000000FF005500000057
S1130DF0FF0055000000FF00550000000000000047
S1130E0000000000000000000000000000000000DE
S1130E1000000000000000000000000000000000CE
S1130E20FF0055000000FF0055000000FF005500C2
S1130E300000FF005500FF0000000000FF0000005C
S1130E4000000000FF0055000000FF0055000000F6
S1130E50FF0055000000FF005500000000000000E6
S1130E60000000000000000000000000000000007E
S1130E70000000000000000000000000000000006E
S1130E80FF0055000000FF0000000000FF005500B7
S1130E900000FF005500FF0000000000FF000000FC
S1130EA000000000FF0055000000FF005500000096
S1130EB0FF0000000000FF005500000000000000DB
S1130EC0000000000000000000000000000000001E
S1130ED0000000000000000000000000000000000E
S1130EE0FF0055000000FF000000FF00AA00000002
S1130EF00000FF000000FF0000000000FF000000F1
S1130F0000000000FF000000FF00AA000000000035
S1130F10FF0000000000FF0055000000000000007A
S1130F2000000000000000000000000000000000BD
S1130F300000000000000000000000000000FF00AE
S1130F4000000000FF0000000000FF00AA000000F5
S1130F50FF00AA000000FF00FF000000FF00FF00E8
S1130F600000FF00AA000000FF00AA000000FF002C
S1130F7000000000FF00000000000000000000006E
S1130F80000000000000000000000000000000005D
S1130F900000000000000000000000000000FF004E
S1130FA000000000FF0000000000FF00AA00000095
S1130FB0FF00AA000000FF00FF000000FF00FF0088
S1130FC00000FF00AA000000FF00AA000000FF00CC
S1130FD000000000FF00000000000000000000000E
S1130FE000000000000000000000000000000000FD
S1130FF000000000000000000000000000000000ED
S1131000FF0055000000FF000000FF00AA000000E0
S11310100000FF000000FF0000000000FF000000CF
S113102000005500FF000000FF00AA0000000000BF
S1131030FF0000000000FF00550000000000000059
S1131040000000000000000000000000000000009C
S1131050000000000000000000000000000000008C
S1131060FF0055000000FF0000005500FF000000D5
S11310705500FF000000FF0000000000FF0000001A
S113108000005500FF0000005500FF0000000000B4
S1131090FF0000000000FF005500000000000000F9
S11310A0000000000000000000000000000000003C
S11310B0000000000000000000000000000000002C
S11310C0FF0055000000FF0000005500FF00000075
S11310D05500FF000000FF0000000000FF000000BA
S11310E000005500FF0000005500FF000000000054
S11310F0FF0000000000FF00550000000000000099
S113110000000000000000000000000000000000DB
S113111000000000000000000000000000000000CB
S1131120FF0055000000FF0055005500FF000000BF
S11311300000FF005500FF0000000000FF00000059
S113114000005500FF0000005500FF0000000000F3
S1131150FF0055000000FF005500000000000000E3
S1131160000000000000000000000000000000007B
S1131170000000000000000000000000000000006B
S1131180000000000000000000000000000000005B
S1131190000000000000000000000000000000004B
S11311A0000000000000000000000000000000003B
S11311B0000000000000000000000000000000002B
S11311C0000000000000000000000000000000001B
S11311D0000000000000000000000000000000000B
S11311E000000000000000000000000000000000FB
S11311F000000000000000000000000000000000EB
S113120000000000000000000000000000000000DA
S113121000000000000000000000000000000000CA
S113122000000000000000000000000000000000BA
S113123000000000000000000000000000000000AA
S1131240000000000000000000000000000000009A
S1131250000000000000000000000000000000008A
S1131260000000000000000000000000000000007A
S1131270000000000000000000000000000000006A
S11312800000000000000000000000000000550005
S1131290FF0000005500FF0000005500FF000000A3
S11312A05500FF0000005500FF0000005500FF003E
S11312B000005500FF00FF00FF00FF00FF00FF00DB
S11312C0FF00FF00FF00FF0000005500FF000000CA
S11312D05500FF0000005500FF0000005500FF000E
S11312E000005500FF0000005500FF0000005500FD
S11312F0FF0000005500FF0000005500FF00000043
S11313005500FF000000FF00550000005500FF00DD
S113131000005500FF00FF00FF00FF00FF00FF007A
S1131320FF00FF00FF00FF0000005500FF00000069
S11313305500FF0000005500FF0000005500FF00AD
S113134000005500FF0000005500FF00000055009C
S1131350FF0000005500FF0000005500FF000000E2
S11313605500FF0000005500FF0000005500FF007D
S113137000005500FF00FF0000000000FF00000017
S1131380000000005500FF0000005500FF000000B1
S11313905500FF0000005500FF0000005500FF004D
S11313A000005500FF0000005500FF000000FF0092
S11313B0550000005500FF0000005500FF0000002C
S11313C05500FF0000005500FF0000005500FF001D
S11313D0FF0000000000FF0000000000FF0000000C
S11313E00000FF000000000000005500FF000000A6
S11313F05500FF0000005500FF0000005500FF00ED
S11314000000FF00550000005500FF0000005500DB
S1131410FF0000005500FF0000005500FF00000021
S11314205500FF0000005500FF00FF000000000011
S1131430FF0000000000FF0000000000FF000000AB
S11314400000FF0000000000FF000000000000009A
S11314505500FF0000005500FF0000005500FF008C
S113146000005500FF0000005500FF00000055007B
S1131470FF0000005500FF0000005500FF000000C1
S11314805500FF00FF0000000000FF000000000006
S1131490FF0000000000FF0000000000FF0000004B
S11314A00000FF0000000000FF0000000000FF003B
S11314B00000000000005500FF0000005500FF0080
S11314C000005500FF0000005500FF00000055001B
S11314D0FF0000005500FF0000005500FF00FF0062
S11314E000000000FF0000000000FF0000000000FA
S11314F0FF0000000000FF0000000000FF000000EB
S11315000000FF0000000000FF0000000000FF00DA
S113151000000000FF000000000000005500FF0074
S113152000005500FF0000005500FF0000005500BA
S1131530FF0000005500FF0000005500FF00FF0001
S1131540FF00FF00FF00FF00FF00FF00FF00FF009F
S1131550FF00FF00FF00FF00FF00FF00FF00FF008F
S1131560FF00FF00FF00FF00FF00FF00FF00FF007F
S1131570FF00FF00FF00FF00FF0000005500FF0018
S113158000005500FF0000005500FF00000055005A
S1131590FF0000005500FF0000005500FF00FF00A1
S11315A0FF00FF00FF00FF00FF00FF00FF00FF003F
S11315B0010001000100FF00FF00FF00FF00FF0029
S11315C0FF00010001000100FF00FF00FF00FF0019
S11315D0FF00FF00FF00FF00FF0000005500FF00B8
S11315E000005500FF0000005500FF0000005500FA
S11315F0FF0000005500FF0000005500FF00000040
S11316005500FF00FF00FF00FF00FF00FF00FF0088
S1131610FF00FF00FF00FF00FF00FF00FF00FF00CE
S1131620FF00FF00FF00FF00FF00FF00FF00FF00BE
S1131630FF00FF0000005500FF0000005500FF0000
S113164000005500FF000000FF0055000000550099
S1131650FF0000005500FF0000005500FF000000DF
S11316605500FF00FF00FF00FF00FF00FF00FF0028
S1131670FF0000005500FF0000005500FF000000BF
S11316805500FF0000005500FF00FF00FF00FF00B1
S1131690FF00FF0000005500FF0000005500FF00A0
S11316A000005500FF0000005500FF000000550039
S11316B0FF0000005500FF0000005500FF0000007F
S11316C05500FF0000005500FF00FF00FF00FF0071
S11316D0FF00FF00FF00FF0000005500FF000000B6
S11316E05500FF00FF00FF00FF00FF00FF000000A7
S11316F05500FF0000005500FF0000005500FF00EA
S113170000005500FF0000005500FF0000005500D8
S1131710FF0000005500FF0000005500FF0000001E
S11317205500FF0000005500FF0000005500FF00B9
S1131730FF00FF00FF00FF00FF00FF00FF00FF00AD
S1131740FF00FF00FF00FF0000005500FF00000045
S11317505500FF0000005500FF0000005500FF0089
S11317600000FF00550000005500FF000000550078
S1131770FF000000FF00550000005500FF000000BE
S11317805500FF0000005500FF00FF0000000000AE
S1131790FF0000000000FF0000000000FF00000048
S11317A00000FF0000000000FF0000000000000037
S11317B05500FF0000005500FF0000005500FF0029
S11317C000005500FF0000005500FF000000550018
S11317D0FF0000005500FF0000005500FF00FF005F
S11317E000000000FF0000000000FF0000000000F7
S11317F0FF0000000000FF0000000000FF000000E8
S11318000000FF0000000000FF0000000000FF00D7
S113181000000000FF000000000000005500FF0071
S113182000005500FF0000005500FF0000005500B7
S1131830FF0000005500FF00FF0000000000FF0053
S113184000000000FF0000000000FF000000000096
S1131850FF0000000000FF0000000000FF00000087
S11318600000FF0000000000FF0000000000FF0077
S113187000000000FF0000000000FF000000000066
S1131880FF000000000000005500FF0007000700F3
S1131890010007000700010007000700010007001E
S11318A0070001000700070001000700070001000E
S11318B007000700010007000700010007000700F8
S11318C001000700070001000700070001000700EE
S11318D007000100070007000100070007000100DE
S11318E007000700010007000700010007000700C8
S11318F001000700070001000700070001000700BE
S113190007000100070007000100070007000100AD
S11319100700070001000700070001000700070097
S11319200100FF00A90000000700070001000700F4
S1131930070001000700070001000700070001007D
S11319400700070001000700070001000700070067
S1131950010007000700010007000700010007005D
S1131960070001000700070001000700070001004D
S1131970070007000100070007000100FF00A9009D
S11319800000FF00A9000000FF00A90000000700FC
S1131990070001000700070001000700070001001D
S11319A00700070001000700070001000700070007
S11319B001000700070001000700070001000700FD
S11319C007000100070007000100070007000100ED
S11319D0070007000100070007000100FF00A9003D
S11319E00000FF00A9000000070007000100070035
S11319F007000100070007000100070007000100BD
S1131A0007000700010007000700010007000700A6
S1131A10010007000700010007000700010007009C
S1131A20070001000700070001000700070001008C
S1131A30FF00A9000000FF00A9000000FF00FF0054
S1131A400000FF00A90000000700070001000700D4
S1131A50070001000700070001000700070001005C
S1131A600700070001000700070001000700070046
S1131A70010007000700010007000700010007003C
S1131A8007000100070007000100FF00AA00000092
S1131A90FF00A9000000FF00FF000000FF00FF009E
S1131AA00000FF00FF000000FF00AA000000070084
S1131AB007000100070007000100070007000100FC
S1131AC007000700010007000700010007000700E6
S1131AD001000700070001000700070001000700DC
S1131AE007000100070007000100FF00A900000033
S1131AF0FF00FF000000FF00FF000000FF00FF00E8
S1131B000000FF00FF000000FF00AA000000FF002B
S1131B10AA000000070007000100070007000100F9
S1131B200700070001000700070001000700070085
S1131B30010007000700010007000700010007007B
S1131B4007000100FF00A9000000FF00FF000000E3
S1131B50FF00FF000000FF00FF000000FF00FF0087
S1131B600000FF00FF000000FF00FF000000FF0076
S1131B70AA00000007000700010007000700010099
S1131B800700070001000700070001000700070025
S1131B900100070007000100070007000100FF0023
S1131BA0AA000000FF00A9000000FF00FF000000E1
S1131BB0FF00FF000000FF00FF000000FF00FF0027
S1131BC00000FF00FF000000FF00FF000000FF0016
S1131BD0AA00000007000700010007000700010039
S1131BE007000700010007000700010007000700C5
S1131BF00100070007000100070007000100FF00C3
S1131C00AA000000FF00AA000000FF00AA000000D4
S1131C10FF00AA000000FF00AA000000FF00AA00C5
S1131C200000FF00AA000000FF00FF000000FF000A
S1131C30AA000000070007000100070007000100D8
S1131C400700070001000700070001000700070064
S1131C500100070007000100FF00AA000000FF00C8
S1131C60AA000000FF00AA000000FF00FF0000001F
S1131C70FF00FF000000FF00FF000000FF00AA00BB
S1131C800000FF00AA000000FF00AA000000FF00FF
S1131C90AA000000FF00AA000000070007000100DE
S1131CA00700070001000700070001000700070004
S1131CB00100070007000100FF00AA000000FF0068
S1131CC0FF000000FF00FF000000FF00FF00000015
S1131CD0070007000100070007000100FF00FF00E4
S1131CE00000FF00FF000000FF00FF000000FF00F5
S1131CF0AA000000FF00AA0000000700070001007E
S1131D0007000700010007000700010007000700A3
S1131D100100070007000100FF00AA000000FF0007
S1131D20AA000000FF00FF000000FF00FF00000009
S1131D30070007000100070007000100FF00FF0083
S1131D400000FF00FF000000FF00FF000000FF0094
S1131D50AA000000070007000100070007000100B7
S1131D600700070001000700070001000700070043
S1131D700100070007000100070007000100070039
S1131D8007000100FF00AA000000FF00AA000000F5
S1131D90FF00AA000000FF00A9000000FF00A90046
S1131DA00000FF00A9000000FF00A9000000FF00E0
S1131DB0AA00000007000700010007000700010057
S1131DC007000700010007000700010007000700E3
S1131DD001000700070001000700070001000700D9
S1131DE007000100070007000100FF00A900000030
S1131DF0FF00A9000000FF00A9000000FF00A900E7
S1131E000000FF00A9000000FF00A9000000070077
S1131E100700010007000700010007000700010098
S1131E200700070001000700070001000700070082
S1131E300100070007000100070007000100070078
S1131E400700010007000700010007000700010068
S1131E500700070001000700070001000700070052
S1131E600100070007000100070007000100070048
S1131E700700010007000700010007000700010038
S1131E800700070001000700070001000000000030
S1131E90FF0000000000FF0000000000FF00000041
S1131EA00000FF0000000000FF0000000000FF0031
S1131EB000000000FF0000000000FF000000000020
S1131EC0FF0000000000FF0000000000FF00000011
S1131ED00000FF0000000000FF0000000000FF0001
S1131EE000000000FF0000000000FF0000000000F0
S1131EF0FF0000000000FF0000000000FF000000E1
S1131F000000FF0000000000FF0000000000FF00D0
S1131F1000000000FF00FF00FF00FF0000000000C1
S1131F20FF0000000000FF0000000000FF000000B0
S1131F300000FF0000000000FF0000000000FF00A0
S1131F4000000000FF0000000000FF00000000008F
S1131F50FF0000000000FF00FF00FF00FF00000082
S1131F600000FF0000000000FF00FF00FF00FF0072
S1131F7000000000FF00FF00FF00FF000000000061
S1131F80FF00FF00FF00FF0000000000FF00000052
S1131F900000FF0000000000FF00FF00FF00FF0042
S1131FA000000000FF0000000000FF00000000002F
S1131FB0FF0000000000FF00FF00FF00FF00000022
S1131FC00000FF0000000000FF0000000000FF0010
S1131FD0FF00FF00FF00FF00FF00FF00FF00FF0005
S1131FE0FF0000000000FF0000000000FF00FF00F1
S1131FF0FF00FF00FF00FF00FF0000000000FF00E3
S113200000000000FF0000000000FF0000000000CE
S1132010FF0000000000FF0000000000FF00FF00C0
S1132020FF00FF00FF00FF00FF0000000000FF00B2
S113203000000000FF00FF00FF00FF0000000000A0
S1132040FF0000000000FF00FF00FF00FF00FF0092
S1132050FF00FF0000000000FF0000000000FF0080
S113206000000000FF0000000000FF00000000006E
S1132070FF00FF00FF00FF0000000000FF00000061
S11320800000FF00FF00FF00FF00FF00FF00FF0053
S113209000000000FF00FF00FF00FF000000000040
S11320A0FF00FF00FF00FF00FF00FF00FF00000033
S11320B00000FF0000000000FF0000000000FF001F
S11320C000000000FF0000000000FF00000000000E
S11320D0FF0000000000FF00FF00FF00FF00000001
S11320E00000FF0000000000FF00FF00FF00FF00F1
S11320F0FF00FF00FF00FF00FF00FF00FF00FF00E4
S1132100FF00FF00FF00FF0000000000FF000000D0
S11321100000FF0000000000FF00FF00FF00FF00C0
S113212000000000FF0000000000FF00FF00FF00AF
S1132130FF00FF00FF00FF00FF00FF00FF00FF00A3
S1132140FF00FF00FF00FF00FF00FF00FF00FF0093
S1132150FF00FF00FF00FF00FF00FF00FF00FF0083
S1132160FF0000000000FF0000000000FF0000006E
S11321700000FF00FF00FF00FF0000000000FF0060
S113218000000000FF0000000000FF00000000004D
S1132190FF0000000000FF00FF00FF00FF00000040
S11321A00000FF0000000000FF0000000000FF002E
S11321B0FF00FF00FF00FF00FF00FF00FF00FF0023
S11321C0FF00FF00FF00FF00FF00FF00FF00FF0013
S11321D0FF00FF00FF00FF00FF00FF00FF00FF0003
S11321E0FF00FF00FF0000000000FF0000000000EF
S11321F0FF00FF00FF00FF0000000000FF000000E0
S11322000000FF0000000000FF00FF00FF00FF00CF
S1132210FF00FF00FF00FF00FF00FF00FF00FF00C2
S1132220FF0000000000FF0000000000FF000000AD
S11322300000FF00FF00FF00FF0000000000FF009F
S113224000000000FF0000000000FF00000000008C
S1132250FF0000000000FF0000000000FF0000007D
S11322600000FF00FF00FF00FF00FF00FF00FF0071
S113227000000000FF00FF00FF00FF00000000005E
S1132280FF00FF00FF00FF00FF00FF00FF00000051
S11322900000FF0000000000FF00FF00FF00FF003F
S11322A000000000FF0000000000FF00000000002C
S11322B0FF0000000000FF0000000000FF00FF001E
S11322C0FF00FF00FF00FF00FF0000000000FF0010
S11322D000000000FF00FF00FF00FF0000000000FE
S11322E0FF0000000000FF00FF00FF00FF00FF00F0
S11322F0FF00FF0000000000FF0000000000FF00DE
S113230000000000FF0000000000FF0000000000CB
S1132310FF0000000000FF00FF00FF00FF00FF00BF
S1132320FF00FF0000000000FF0000000000FF00AD
S1132330FF00FF00FF00FF00FF00FF00FF00FF00A1
S1132340FF0000000000FF0000000000FF00FF008D
S1132350FF00FF00FF00FF00FF0000000000FF007F
S113236000000000FF0000000000FF00000000006B
S1132370FF0000005500FF00FF00FF00FF00000009
S11323800000FF0000000000FF00FF00FF00FF004E
S113239000000000FF00FF00FF00FF00000000003D
S11323A0FF00FF00FF00FF0000000000FF0000002E
S11323B00000FF00FF00FF00FF0000000000FF001E
S11323C000000000FF0000000000FF00000000000B
S11323D0FF0000005500FF0000000000FF000000A7
S11323E00000FF0000000000FF0000000000FF00EC
S11323F000000000FF00FF00FF00FF0000000000DD
S1132400FF0000000000FF0000000000FF000000CB
S11324100000FF0000000000FF0000000000FF00BB
S113242000000000FF0000000000FF0000000000AA
S1132430FF0000005500FF0000000000FF00000046
S11324400000FF0000000000FF0000000000FF008B
S113245000000000FF0000000000FF00000000007A
S1132460FF0000000000FF0000000000FF0000006B
S11324700000FF0000000000FF0000000000FF005B
S113248000000000FF0000000000FF0011241FBE38
S1132490CFEFD0E1DEBFCDBF13E0A0E0B1E0E4E9CF
S11324A0F5E300E00BBF02C007900D92A438B1071A
S11324B0D9F72AE0A4E8B3E001C01D92A631B2071F
S11324C0E1F718D70C94C81A0C9400003D0A4F0A7F
S11324D0850AE00A5E0B010CC60CAE0DB80EE40FC3
S11324E031119D122914D3159A177D197C1B931D44
S11324F0C41F0B226824D9265C29F12B962E48315F
S11325000634CF36A1397A3C583F3A421E45014839
S1132510E34AC14D9A506C533556F458A65B4A5E53
S1132520DF606363D4653168786AA86CC06EBE707E
S1132530A172687412769E770B79577A837B8D7CAF
S1132540757D3B7EDD7E5B7FB67FEC7FFE7FEC7F1F
S1132550B67F5B7FDD7E3B7E757D8D7C837B577A8A
S11325600B799E7712766874A172BE70C06EA86CE7
S1132570786A3168D4656363DF604A5EA65BF458A9
S113258035566C539A50C14DE34A01481E453A42B0
S1132590583F7A3CA139CF3606344831962EF12B78
S11325A05C29D92668240B22C41F931D7C1B7E1929
S11325B09A17D31529149D123111E40FB80EAE0DDC
S11325C0C60C010C5E0BE00A850A4F0AFF7F00006F
S11325D0D77F4706617F8B0C9C7EC712897DF818D4
S11325E0297C191F7C7A272583781E2B4076FB30A3
S11325F0B573B936E170563CC96DCD416C6A1C4760
S1132600CE663F4CF1623351D65EF455815A815AFD
S1132610F455D65E3351F1623F4CCE661C476C6A6A
S1132620CD41C96D563CE170B936B573FB30407687
S11326301E2B837827257C7A191F297CF818897D1D
S1132640C7129C7E8B0C617F4706D77F0000FE7FFC
S1132650B9F9D77F75F3617F39ED9C7E08E7897DF1
S1132660E7E0297CD9DA7C7AE2D4837805CF407616
S113267047C9B573AAC3E17033BEC96DE4B86C6AC7
S1132680C1B3CE66CDAEF1620CAAD65E7FA5815AE7
S11326902AA1F5550F9D335132993F4C94951C470F
S11326A03792CD411F8F563C4C8CB936C089FB30D4
S11326B07D871E2B84852725D883191F7782F818D8
S11326C06481C7129F808B0C29804706000000019B
S11326D08000800140004001C000C00120002001B2
S11326E0A000A00160006001E000E0011000100102
S11326F09000900150005001D000D0013000300112
S1132700B000B00170007001F000F0010800080191
S11327108800880148004801C800C8012800280131
S1132720A800A80168006801E800E8011800180181
S11327309800980158005801D800D8013800380191
S1132740B800B80178007801F800F8013F922F92A0
S11327501F930F93DF93CF93DC01EB019927ECECEC
S1132760F4E200E810E0259135914D915D91B503B7
S1132770B0012C031001691FBC03790B300C611DDF
S1132780791FDA03790B300C611D791F69937993F2
S1132790699379930150104031F7CF91DF910F91F4
S11327A01F912F903F90112408953F922F925F9292
S11327B04F927F926F929F928F92BF92AF92DF92CD
S11327C0CF92FF92EF921F930F93DF93CF93FC016D
S11327D081E090E0A0E4B0E004E0809F6001909F7D
S11327E0D00C7C019F938F93EF01A09FC00DD11D4E
S11327F0B09FD00DFF93EF93BB24AA2499270081A7
S11328001181159507956881798175956795A8015A
S1132810061B170B460F571F41935193208131819B
S1132820359527956A817B8175956795A901261B46
S1132830370B460F571F419351930F01ECECF5E210
S1132840EA0DFB1D4591559165917591F001950334
S113285020010C031001491E9C03590A300C411C31
S1132860591ED803590A300C411C591EB7034001A4
S11328702E033001891EBE03990A700C811C991E17
S1132880FA03990A700C811C991E260C371C481CEB
S1132890591C49925992B50320012C031001491E79
S11328A0BC03590A300C411C591EDA03590A300C76
S11328B0411C591E970340010E033001891E9E03DB
S11328C0990A700C811C991EF803990A700C811CDA
S11328D0991E261837084808590849925992AC0C91
S11328E0BD1CB0FE8CCF04E0A09FC00DD11DE00D37
S11328F0F11DB09FD00DF00D81E0E81AF90A09F03E
S11329007BCFEF91FF918F919F91880F991FB6957F
S1132910A795109609F060CFCF91DF910F911F9189
S1132920EF90FF90CF90DF90AF90BF908F909F90EB
S11329306F907F904F905F902F903F9008953F92BB
S11329402F925F924F927F926F929F928F92BF923B
S1132950AF921F930F93DF93CF935C01EB01ECECE9
S1132960F6E2992700E410E0A591B591AA0DBB1DEC
S11329702D913D914D915D91B30320012A031001E6
S1132980491EBA03590A300C411C591EBA03590A8C
S1132990300C411C591ED50340014C033001891EE3
S11329A0DC03990A700C811C991EDC03990A700CD3
S11329B0811C991E260C371C481C591C662477243C
S11329C08824992421E030E04427552770E1220C23
S11329D0331C441C551C661C771C881C991C220C37
S11329E0331C441C551C661C771C881C991C2AF437
S11329F0620E731E841E951E04C0621A730A840A32
S1132A00950A220F331F441F287F256097FC22500C
S1132A107A95E9F6469537952795469537952795FE
S1132A20299339930150104009F09ECFCF91DF9143
S1132A300F911F91AF90BF908F909F906F907F9058
S1132A404F905F902F903F9011240895AC019927E7
S1132A50D703F0014E03D001E91FDE03F90BB00DDB
S1132A60E11DF91FFC03F90BB00DE11DF91FCF01A6
S1132A70112408958A3049F45D9BFECF8DE08CB912
S1132A805D9BFECF8AE08CB903C05D9BFECF8CB901
S1132A9080E090E008951092900088E089B91BB816
S1132AA088E18AB986E080939500089510926200C7
S1132AB0109261008FEF83B99EEF92B982BB11BA75
S1132AC08FE39CE90197F1F700C0000086E886B91E
S1132AD087E592E00197F1F700C00000089585EDC5
S1132AE086B9349BFECF24B185B190E0982F882716
S1132AF0820F911D08955F926F927F928F929F92A1
S1132B00AF92BF92CF92DF92EF92FF920F931F93F7
S1132B10CF93DF930F2EFCE08F2EF6E09F2EF02D47
S1132B202CE039E0F4011182108212823396E2170C
S1132B30F307C9F710920D0910920C09A090020135
S1132B402091880330918903220F331F3C01620EC8
S1132B50731EC12CD12CB12C10928B0510928A05B6
S1132B607301F30180819181181619060CF080C05D
S1132B70E401C35ADF4FD40160E070E0CB01772356
S1132B800CF4019695958795FC01EE0FFF1FE80F55
S1132B90F91FEE0FFF1FEC5AFC4F40815181411584
S1132BA0510529F0A49E202D1124215001C02B2D64
S1132BB08D0111962C931197FC01EE0FFF1FE80F66
S1132BC0F91FEE0FFF1FEC5AFC4F228133812115B0
S1132BD0310539F0A29EE02D112455245A945E0E3D
S1132BE001C05B2CF8015082FC01EE0FFF1FE80FBF
S1132BF0F91FEE0FFF1FEC5AFC4F8481958100975B
S1132C0039F0A89EE02D112455245A945E0E01C07B
S1132C105B2CF80152824115510529F0A49E402DE8
S1132C201124415001C04B2DFE014983211531056A
S1132C3029F0A29E202D1124215001C02B2D208388
S1132C40009729F0A89E802D1124815001C08B2D5E
S1132C5082836F5F7F4F70938B0560938A05239700
S1132C601396F70180819181681779070CF486CF58
S1132C70FFEFCF1ADF0AD0920D09C0920C0982E04F
S1132C80680E711CE0E68E0E911CF8E0CF16D1049C
S1132C9009F062CF60E071E08CE096E025D4DF912A
S1132CA0CF911F910F91FF90EF90DF90CF90BF9045
S1132CB0AF909F908F907F906F905F900895BF9298
S1132CC0CF92DF92EF92FF920F931F93CF93DF93F4
S1132CD0ECE0F6E00F2EFCE0CF2EF9E0DF2EF02D35
S1132CE01182108212823396CE16DF06C9F7813123
S1132CF091050CF059C00197B0900201BB0CBB0CBC
S1132D00BB0CBB0CBA94880F991F82959295907F47
S1132D109827807F98279C012C5C3E4F79016CEDAD
S1132D2078E009E019E0F701419151917F01C4E194
S1132D30D1E0D801FB0120E030E08991999184230E
S1132D409523022E02C0969587950A94E2F701977F
S1132D5069F420FD04C0B182B082B28207C011962A
S1132D60BC921197BC921296BC9212972F5F3F4F60
S1132D70F097D0972031310501F76D5F7F4F0350F5
S1132D8011096C157D0579F680E190E090938B052F
S1132D9080938A0590930D0980930C0960E071E09B
S1132DA08CE096E0A1D303C080E190E0A5CFDF9151
S1132DB0CF911F910F91FF90EF90DF90CF90BF9034
S1132DC008956F927F928F929F92AF92BF92CF920B
S1132DD0DF92EF92FF920F931F93CF93DF93882498
S1132DE08394912CC0E0D6E0612C7724739406E0A0
S1132DF010E0B62CA72C10920D0910920C09109219
S1132E008B0510928A0545C1809B1FC08FE99FE006
S1132E100197F1F700C00000809B17C01092870350
S1132E201092860310930D0900930C09B0928A0541
S1132E30A0928B059FEF21EE84E0915020408040CA
S1132E40E1F700C00000812C912C40FD87C08091E7
S1132E508A0590918B059B01280F391FC0900C099E
S1132E60D0900D0982959295907F9827807F98271E
S1132E70840F951FD901AA0FBB1FA20FB31FA45F14
S1132E80B94FFC01EE0FFF1FE80FF91FEE0FFF1FF4
S1132E90CC9E7001CD9EF00CDC9EF00C1124EE0D46
S1132EA0FF1DE457FF4F0590F491E02DFF230CF430
S1132EB03796F595E795F595E795F595E795119688
S1132EC0EC93D901AA0FBB1FA20FB31FA45FB94F84
S1132ED0FC01EE0FFF1FE80FF91FEE0FFF1FCC9E42
S1132EE07001CD9EF00CDC9EF00C1124EE0DFF1D44
S1132EF0E257FF4F0590F491E02DFF230CF4379631
S1132F00F595E795F595E795F595E795EC93D90152
S1132F10AA0FBB1FA20FB31FA45FB94FFC01EE0F92
S1132F20FF1F8E0F9F1F880F991FCC9EF001CD9E0F
S1132F30F00DDC9EF00D1124E80FF91FE057FF4F50
S1132F408591959199230CF4079695958795959578
S1132F5087959595879512968C9388C080918A055C
S1132F6090918B059B01215F3F4F281B390BC0902B
S1132F700C09D0900D0982959295907F9827807FB7
S1132F809827840F951FD901AA0FBB1FA20FB31F47
S1132F90A45FB94FFC01EE0FFF1FE80FF91FEE0FFE
S1132FA0FF1FCC9E7001CD9EF00CDC9EF00C112412
S1132FB0EE0DFF1DE457FF4F0590F491E02DFF2324
S1132FC00CF43796F595E795F595E795F595E7951E
S1132FD01196EC93D901AA0FBB1FA20FB31FA45FD4
S1132FE0B94F7C01EE0CFF1CE80EF91EEE0CFF1C21
S1132FF0CC9EF001CD9EF00DDC9EF00D1124EE0D63
S1133000FF1DE257FF4F0590F491E02DFF230CF4D0
S11330103796F595E795F595E795F595E795EC934E
S1133020D901AA0FBB1FA20FB31FA45FB94FFC01A4
S1133030EE0FFF1F8E0F9F1F880F991FCC9EF0016C
S1133040CD9EF00DDC9EF00D1124E80FF91FE05722
S1133050FF4F8591959199230CF407969595879543
S1133060959587959595879512968C934F5F5F4FAD
S1133070605171094031510509F0C6CE80918A052D
S113308090918B05019690938B0580938A054097C8
S11330902CF460EF70E040E050E0B6CE662D772D62
S11330A08CE096E021D29FEF23ED80E39150204005
S11330B08040E1F700C0000080910C0990910D0957
S11330C0019690930D0980930C0906970CF497CE02
S11330D08114910409F08FCEDF91CF911F910F914C
S11330E0FF90EF90DF90CF90BF90AF909F908F9024
S11330F07F906F900895809B20C08FE99FE0019797
S1133100F1F700C00000809B18C081E090E020919E
S11331108603309187032130310511F480E090E07B
S113312090938703809386039FEF23EC89E091506B
S113313020408040E1F700C00000089583E487B98F
S1133140CEDC893621E092070CF520910201309102
S1133150030120313105D4F4409186035091870353
S1133160452BA1F02F5F3F4F3093030120930201C1
S113317010928503109284038FEF91EE24E0815026
S113318090402040E1F700C0000022C08A369340FE
S1133190FCF0809102019091030182309105C4F00A
S11331A02091860330918703232B91F0019790930C
S11331B003018093020110928503109284038FEF20
S11331C091EE24E0815090402040E1F700C00000DF
S11331D084E487B984DC2091860330918703232B10
S11331E009F448C0893621E09207ECF420910401E7
S11331F03091050120343105B4F4220F331F30938C
S113320005012093040181E090E09093850380936D
S113321084038FEF91EE24E0815090402040E1F749
S113322000C0000008958A3693400CF462C0809177
S1133230040190910501813191050CF45AC09C015F
S1133240992314F42F5F3F4F35952795309305014B
S11332502093040181E090E090938503809384039C
S11332608FEF91EE24E0815090402040E1F700C0C0
S113327000000895893621E092071CF540918803E7
S1133280509189032091040130910501332314F4F2
S11332902F5F3F4F35952795285031094217530723
S11332A084F44F5F5F4F50938903409388038FEFFB
S11332B090E722E0815090402040E1F700C00000F8
S11332C008958A369340ACF08091880390918903E5
S11332D01816190674F40197909389038093880350
S11332E08FEF91EE24E0815090402040E1F700C040
S11332F000000895CF93DF9300D000D0CDB7DEB7A0
S1133300D5DBC9DB86E091E09093130A8093120A1F
S11333108FE39CE90197F1F700C0000052DDEBDE7A
S11333200DDFA0908603B0908703A114B10409F0C7
S1133330BBC0ADB7BEB7BA83A98380910401909195
S11333400501880F991F2DB73EB7281B390B0FB6FF
S1133350F8943EBF0FBE2DBF8DB79EB701961C01DA
S113336092E497B9BCDB9093010180930001A1E43E
S1133370A7B910920F0910920E098501B0DBF8016C
S1133380EE0FFF1FE05FF64F92509183808387EC2E
S113339090E00197F1F700C0000000910E09109130
S11333A00F090F5F1F4F10930F0900930E09003888
S11333B0110524F36AE873E080E199E0C7D98AE84B
S11333C093E0F3D96CE875E08AE893E0B8DAECE8C6
S11333D0F5E0118210821382128210920D0910926C
S11333E00C094090040150900501141415040CF0CC
S11333F051C080E890E0B201A4D06B01809100013B
S1133400909101013C01660C771C680E791E8101C4
S11334107B01EE0CFF1C9F014201880C991C820C5D
S1133420931CAB82BC82A62EBD2C1C141D0484F4F8
S1133430B9016E0D7F1DF90180E090E04191519139
S1133440840F951FE617F707C9F7EA2D4B2D04C023
S1133450EB814C8180E090E082959295907F982753
S1133460807F9827B3016DD06131710514F060E15C
S113347070E0D8016D937D938D012E0D3F1DA8152D
S1133480B90599F6E0938A0540938B0550920D098E
S113349040920C09C1012FDB29813A810FB6F894BF
S11334A03EBF0FBE2DBF16C080918403909185034B
S11334B0892B31F4809102019091030100DC0AC050
S11334C0809104019091050199230CF4019695953E
S11334D08795F5DB3FE78CE991E0315080409040DF
S11334E0E1F700C000001BCF9B01220F331F620FC6
S11334F0731FBA9A28B32B7F38B334604FB7F8944C
S113350061157105B1F0FC01680F791F919188E094
S113351038BB000000C097FF28BB990F000000C013
S113352000C000C028BB00C08A9591F7E617F707D2
S113353069F74FBF8FEA94E00197F1F700C00000EC
S1133540089597FB072E16F4009406D077FD08D053
S11335500BD007FC05D03EF4909581959F4F0895BC
S1133560709561957F4F0895AA1BBB1B51E107C05D
S1133570AA1FBB1FA617B70710F0A61BB70B881FFF
S1133580991F5A95A9F780959095BC01CD0108958E
S1073590F894FFCFD9
S1133594E8030100100000000002000000003A15D6
S11335A400000000010002000400080010002000D4
S11335B44000800000010002000400080010002004
S11335C4004000800000000000008000C000A00053
S11335D480008000800080008000800000000000E3
S11335E400000000000000000000C00120020002EE
S11335F400020001000180004000E003000000001C
S113360400000000000000000000C00120020002CD
S113361400028001000200022002C0010000000038
S1133624000000000000000000000001800180018F
S1133634400140012001E0030001000100000000FA
S113364400000000000000000000C003400020004F
S1133654E0012002000200022002C0010000000078
S113366400000000000000000000C001200220004F
S1133674A0016002200220022002C0010000000018
S113368400000000000000000000E003000100014D
S113369480008000800040004000400000000000E2
S11336A400000000000000000000C001200220020D
S11336B42002C001200220022002C00100000000F8
S11336C400000000000000000000C00120022002ED
S11336D420022003C00200022002C00100000000F6
S11336E400000000000000000000101C1822142236
S11336F410221022102210221022101C000000009C
S1133704000000000000000000001008180C140A57
S11337141008100810081008100810080000000011
S113372400000000000000000000101C18221420F7
S113373410201010101010081004103E0000000097
S113374400000000000000000000101C18221420D7
S113375410201018102010201022101C000000004B
S113376400000000000000000000101018181418D5
S1133774101410141012103E101010100000000049
S113378400000000000000000000103C18041402B3
S1133794101E1022102010201022101C0000000003
S11337A400000000000000000000101C1822140295
S11337B4101A1026102210221022101C00000000DF
S11337C400000000000000000000381C44224020D7
S11337D440203010401040084404383E00000000EB
S11337E40000000010000200000010000B000000A4
S11337F40E0010000000060010000100000010007C
S1133804020000001000080000000C00100000007A
S10738140300100099
S9030000FC
